:020000040800F2
:10000000781C00209D0100089F1B0008A302000827
:100010009D1B0008E7030008F5220008000000000F
:10002000000000000000000000000000A11B00080C
:10003000FD05000800000000EF010008B91B0008E2
:10004000B7010008B7010008B7010008B7010008B0
:10005000B7010008B7010008B7010008B7010008A0
:10006000B7010008B7010008B7010008B701000890
:10007000B7010008B7010008B7010008B701000880
:10008000B7010008B7010008B7010008B701000870
:10009000B7010008B7010008B7010008B701000860
:1000A000B7010008B7010008B7010008B701000850
:1000B000B7010008B7010008B7010008B701000840
:1000C000B7010008B7010008B7010008B701000830
:1000D000B7010008DD220008B7010008B7010008D9
:1000E000B7010008B7010008B7010008B701000810
:1000F000B7010008B7010008B7010008B701000800
:10010000B7010008B7010008B7010008B7010008EF
:10011000B7010008B7010008191D0008B701000861
:10012000B7010008B701000801050008B701000881
:10013000B7010008B7010008B7010008B7010008BF
:10014000B7010008B7010008B7010008B7010008AF
:10015000B7010008B7010008B7010008B70100089F
:10016000B7010008B7010008B7010008B70100088F
:10017000B7010008B7010008B7010008000000003F
:10018000B7010008B7010008DFF80CD000F014F93F
:1001900000480047DD030008781C0020064880471F
:1001A00006480047FEE7FEE7FEE7FEE7FEE7FEE75C
:1001B000FEE7FEE7FEE7FEE7C51C00088901000830
:1001C000EFF3108072B6704780F310887047434A8F
:1001D0001368012B04D04FF001031360404A1060F4
:1001E000404A116040484FF0805101607047EFF382
:1001F000108272B63948016851B34FF000010160B6
:100200003748016891B1EFF309811EF0100F08BF64
:1002100021ED108B21E9F00F4FF000041EF0100FBC
:1002200008BF012441F8044D006801602D490968A8
:10023000096808C9B1E8F00F002B18BFB1EC108BAA
:1002400081F309884EF0100E002B18BF2EF0100E0F
:1002500082F310884EF0040E704722490860EFF3D5
:10026000148222F0040282F314881D494FF000002A
:1002700008601A494FF0010008601C484FF47F01E4
:10028000D0F8002041EA0201016017484FF0805188
:10029000016017480068006880F3088861B662B69C
:1002A00070471EF0040F0CBFEFF30880EFF30980D6
:1002B00020E9F00F40F804ED40F804ED1EF0040FC3
:1002C0000CBF80F3088880F3098800B502F0B8FA03
:1002D0005DF804EB4EF0040E70470000440000206F
:1002E0003C0000204000002004ED00E020ED00E094
:1002F00008ED00E02DE9F05F0546002092469B46A0
:1003000088460646814640241BE02846414647462B
:10031000224600F041F853465A46C01A914110D384
:1003200011461846224600F028F82D1A67EB0108FE
:100330004F4622460120002100F01FF817EB00096C
:100340004E41201EA4F10104DFDC484631462A4616
:100350004346BDE8F09FD2B201E000F8012B491EF0
:10036000FBD270470022F6E710B513460A46044652
:100370001946FFF7F0FF204610BD202A04DB203A83
:1003800000FA02F1002070479140C2F1200320FAE8
:1003900003F3194390407047202A04DB203A21FAE6
:1003A00002F00021704721FA02F3D040C2F120028E
:1003B0009140084319467047064C074D06E0E06837
:1003C00040F0010394E8070098471034AC42F6D39C
:1003D000FFF7DEFE343D0008543D000810B503F081
:1003E000D7FB002010BDFEE710B50022114609A082
:1003F00002F088FE094C00221146A06108A002F01C
:1004000081FEE06100220A2108A002F03BFC20628C
:1004100010BD00005561727453656D00040000202A
:100420004B6579557053656D000000004B65797818
:100430004D6200007CB564240620CDE900048023D1
:1004400000221C491CA002F0D0FF1D4D8023002279
:1004500028600520CDE900041A491BA002F0C5FF61
:1004600068600420CDE9000480230022184919A007
:1004700002F0BBFFA8600320CDE900048023002226
:10048000164917A002F0B1FF28610220CDE900044F
:1004900080230022144915A002F0A7FF68610720FD
:1004A000CDE9000480230022124913A002F09DFF31
:1004B000E8607CBDA11900084C45443000000000F4
:1004C00004000020C11900084C4544310000000020
:1004D000FD21000855415254310000006518000804
:1004E0004B65795570000000A51800084B657978B8
:1004F0000000000001060008446973706C61790017
:10050000014800F0F9B80000BC050020016818237C
:10051000CAB2103AB2FBF3F2054B6FF30901032A9A
:100520009B5CC36500D9091D8165084670470000C2
:10053000E23B000810B5014600208B698A6A4FF043
:10054000C07453B1B3F5005F15D072B1012A0CD05D
:10055000022A0AD0032A09D104E01AB1012A06D0DE
:10056000022A03D1C96AC90100D5012010BDC96A98
:10057000A142FAD010BD002AF7D0012AF2D0022AF7
:10058000F3D0032AF3D010BD30B50468256825F4F4
:1005900080252560046863608368402B036803D06E
:1005A00099600068C26030BD9A600068C16030BD6B
:1005B00070B5104C207801281AD100202070658871
:1005C0006268A4F57A7000F5FA71824202D1616026
:1005D000A06001E06060A16061684FF4FA720648B3
:1005E00001F062F8A0682946BDE8704001F0DABA6F
:1005F00070BD0000300500207C0500207047000021
:1006000008B500200A4D009001226946286802F0D2
:100610005DFB48B9FFF7D4FD044606A0009901F040
:1006200043FF2046FFF7D0FD0A2002F0A3FFEBE7CF
:1006300024000020B6A8CAB1CAB1B3A4203D202529
:10064000640D0A0070472DE9F0410446876D00F003
:10065000B3FA064694F835000025022806D080201B
:10066000606584F834500120BDE8F081206801689D
:1006700021F0160101602068416921F0800141618B
:10068000206C08B9A06C20B12068016821F0080135
:1006900001602068016821F0010101600BE000F0B9
:1006A0008BFA801B052806D92020606504F8345F8A
:1006B00003206070D8E720680068C007EFD194F885
:1006C0005C103F208840B86004F8345F01206070FF
:1006D0000020C9E790F83510022903D08021416538
:1006E00001207047052180F835100068016821F06D
:1006F00001010160002070472DE9F84304464FF0E6
:100700000009CDF8009063484FF41651A56D0068BC
:10071000B0FBF1F72E6894F85C10082000FA01F1A4
:1007200031420FD021680A6852070BD50A6822F0BF
:1007300004020A6094F85C108840A860606D40F084
:100740000100606594F85C104FF0010808FA01F0B0
:10075000304208D021684969090604D5A860606D57
:1007600040F00200606594F85C100420884030423C
:1007700008D021680968890704D5A860606D40F039
:100780000400606594F85C1010208840304218D056
:1007900021680968090714D5A86020680168490321
:1007A00004D50068000308D5A16C07E00168C905FD
:1007B00003D4016821F008010160216C09B12046D1
:1007C000884794F85C1020208840304231D021685E
:1007D0000968C9062DD5A86094F835000528206859
:1007E000016806D0490347D5006800031DD4616C39
:1007F0001CE021F0160101602068416921F08001B0
:100800004161206C08B9A06C20B12068016821F01A
:100810000801016094F85C103F208840A86084F8CB
:10082000349084F83580216D1FE0E16B09B12046DA
:100830008847606D00282BD0606DC00714D005205C
:1008400084F835002068016821F0010101600098FA
:10085000401C0090B84203D820680068C007F6D159
:1008600084F8349084F83580E16C002910D001B010
:100870002046BDE8F04308470168C905D5D40168A2
:1008800021F01001016084F8349084F83580CCE7C1
:10089000BDE8F883340000202DE9F041044600F063
:1008A0008BF906465CB1002584F83450022084F8A8
:1008B00035002068016821F0010101600DE0012090
:1008C000BDE8F08100F078F9801B052805D92020CB
:1008D0006065032084F83500F2E720680068C007EF
:1008E000F0D12268116820480140D4E9010318437F
:1008F000D4E903363343184363691843A3691843A3
:10090000E3691843236A18430843616A042903D141
:10091000D4E90B1319430843106020684069666AE4
:1009200020F0070130460E43012704280CD1A06AAD
:100930000643E06A40B12046FFF7FCFD20B14020AD
:10094000606584F83570BAE7206846612046FFF795
:10095000DDFD94F85C203F2191408160656584F85D
:1009600035700020ACE700003F8010F02DE9F04129
:100970000446866D90F83400002501280DD0012032
:1009800084F8340094F835700020012F07D084F8E3
:10099000340002252846BDE8F0810220FBE702274B
:1009A00084F8357060652046FFF7EEFD94F85C1022
:1009B0003F208840B0602068016841F01601016066
:1009C0002068416941F080014161206C20B12068BC
:1009D000016841F0080101602068016841F00101EF
:1009E0000160D7E72DE9F84FDFF87CB100224FF026
:1009F00001084FF0030A4FF00F090BF1040E00BF7E
:100A00000B6808FA02F42340A3426ED14D68022D10
:100A100001D0122D0ED1D50800EB850CDCF820504A
:100A20005607F70E09FA07F6B5430E69BE402E4386
:100A3000CCF82060066855000F790AFA05FC07F02B
:100A4000030726EA0C06AF40374307604E68012EC5
:100A500005D0022E03D0112E01D0122E0ED18668A1
:100A6000CF6826EA0C06AF40374387604668A64346
:100A70000C79C4F30014944034434460C6688C6815
:100A800026EA0C06AC403443C4604C68E40065D5EB
:100A9000364C256845F480452560246822F003051E
:100AA00004F480440094324C2E19D6F80848950777
:100AB0002F0F09FA07F5AC432E4DA84201D10025AE
:100AC00024E02D4DA84201D101251FE02B4DA84265
:100AD00001D102251AE02A4DA84201D1032515E0D3
:100AE000284DA84202D1042510E037E0264DA84247
:100AF00001D105250AE0254DA84201D1062505E0D2
:100B0000234DA84201D1072500E00825BD4025431B
:100B1000C6F80858DBF800405D464E689C43F60373
:100B200000D51C432C60DEF8004075464E689C439F
:100B3000B60300D51C432C600B4D08352C684E685D
:100B40009C43F60200D51C432C60074D0C352C68E5
:100B50004E689C43B60200D51C432C60521C102AE0
:100B6000FFF44EAFBDE8F88F003C0140443802402E
:100B70000030014000000240000402400008024032
:100B8000000C024000100240001402400018024015
:100B9000001C02400069084000D0012070474269F3
:100BA00031EA020200D10904816170470AB1816112
:100BB00070470904FBE700000148806870470000A7
:100BC000280000200B4810B5016841F40071016055
:100BD000016841F480610160016841F48071016045
:100BE000032000F06FF8002000F006F800F024F871
:100BF000002010BD003C024070B50D4D04464FF47E
:100C00007A712878B1FBF0F00A490968B1FBF0F07D
:100C100000F0E0FA48B9102C07D200222146501EFD
:100C200000F030F800206C6070BD012070BD000045
:100C300028000020340000200A4808B5016841F46B
:100C400080410160006800F4804000900548001F6A
:100C5000016841F080510160006800F08050009010
:100C600008BD000044380240002809DB00F01F02E4
:100C7000012191404009800000F1E020C0F80011FE
:100C800070470000F0B40E4B1B680C46C3F3022300
:100C9000C3F10705042D00D90425191D072901D228
:100CA000002300E0DB1E012606FA05F1491E214063
:100CB00099409E40761E16403143F0BC01F01BBBAC
:100CC0000CED00E0064900F0070208684FF6FF034C
:100CD000184040EA0220034A1043086070470000B1
:100CE0000CED00E00000FA052DE9F0470E46050086
:100CF00065D0DFF81481D8F80000F7B200F00F00DB
:100D0000B04207D288F80070D8F8000000F00F0059
:100D1000B04254D128683D4C810712D5400703D515
:100D2000206840F4E05020602878000703D5206850
:100D300040F4604020602068A96820F0F00008437B
:100D400020602878C0072DD030496868083901280C
:100D500012D0022813D0032811D00968890700296E
:100D60002DDA216821F0030101432160FFF724FF00
:100D7000814641F2883A0EE009688903EFE7096885
:100D80008901ECE7FFF718FFA0EB0901514502D9F3
:100D90000320BDE8F0872068696800F00C00B0EB24
:100DA000810FEFD1D8F80010404601F00F01B14299
:100DB00007D90770006800F00F00B04201D0012091
:100DC000E7E72878400705D52068E96820F4E05077
:100DD000084320602878000706D52068296920F498
:100DE000604040EAC100206000F036F82168084AFF
:100DF000C1F30311515CC840064908600020FFF7A9
:100E0000FBFE0020C5E70000003C0240083802401D
:100E1000EA3B0008340000200448054900680968DE
:100E2000044AC1F38221515CC8407047340000205D
:100E300008380240FA3B0008044805490068096880
:100E4000044AC1F34231515CC8407047340000206D
:100E500008380240FA3B0008154810B5006810F049
:100E60000C02144813D04110042A0FD0082A0ED1C6
:100E70000F4C241F2268236802F03F025B0207D553
:100E80002068C0F38810A0FB010106E0084610BDF1
:100E90002168C1F38811A1FB00010023FFF72AFAA2
:100EA0002168C1F30141491C4900B0FBF1F010BDBC
:100EB000083802400024F4002DE9F84F050076D0F0
:100EC0002878DFF8F8B2BE4CC00749D0DBF8001034
:100ED0005846C1F38101012908D00068C0F38100A0
:100EE00002280AD1201D0068400206D52068800330
:100EF00036D568680028E2D032E06868B0F5803FF7
:100F000010D0B0F5A02F206810D020F480302060E1
:100F1000206820F4802020606868A0B1FFF74CFEB4
:100F200006460CE0206840F48030F4E740F480206E
:100F30002060F7E7FFF740FE801B642873D8206825
:100F40008003F7D50CE0FFF737FE064605E000BF4B
:100F5000FFF732FE801B6428F0D820688003F7D4A6
:100F60002878DFF8608280074FF000093ED5DBF873
:100F70000010584611F00C0F09D00068C0F3810032
:100F800002280BD18D48001F0068400206D420685B
:100F9000800715D5E868012809D111E0E868B8B1E3
:100FA0000120C8F80000FFF707FE064605E002E151
:100FB000FFF702FE801B0228C0D820688007F7D503
:100FC0002068296920F0F80040EAC10020600DE0A7
:100FD000C8F80090FFF7F0FD064604E0FFF7ECFDCF
:100FE000801B02281FD820688007F7D428780007C4
:100FF00022D5724E744869696C3671B10121016065
:10100000FFF7DAFD074604E0FFF7D6FDC01B022814
:1010100009D830688007F7D50EE0C0F80090FFF7D8
:10102000CBFD074605E083E0FFF7C6FDC01B0228A5
:101030007ED830688007F7D42878400768D5DFF875
:101040007CA100270AF1380ADAF80000C0000BD4AE
:10105000DAF8001041F08051CAF80010DAF8000008
:10106000012700F080500090584E3068C00510D421
:10107000306840F480703060FFF79EFD009005E01E
:10108000FFF79AFD0099401A022851D83068C00530
:10109000F6D54A4EA868683601280FD00528306872
:1010A00010D020F001003060306820F00400306083
:1010B000A868B8B1FFF780FD00900FE0306840F0FD
:1010C0000100F4E740F004003060F7E7FFF774FD3B
:1010D0000099411A41F28830814264D83068800713
:1010E000F4D50EE0FFF768FD009007E0FFF764FD20
:1010F0000099411A41F28830814254D83068800703
:10110000F4D42FB1DAF8001021F08051CAF80010A1
:10111000A869C0B3DBF80010C1F3810102294AD0ED
:101120000228484607D0C8F86000FFF745FD00E0F8
:1011300039E005463AE04746C8F86000FFF73CFD55
:10114000064604E0FFF738FD801B02282BD82068F4
:101150008001F7D4D5E907010843A96A1C4A490868
:1011600002EB01416A6A41EA8211084395F82C10AA
:1011700040EA01611148001F016001203866FFF755
:101180001BFD054605E014E0FFF716FD401B022895
:1011900009D820688001F7D50BE000BFFFF70CFDF0
:1011A000401B022802D90320BDE8F88F2068800187
:1011B000F4D40020F8E70120F6E7000008380240E8
:1011C0000038024000004742800E47420070004055
:1011D0000000FFFF10B5401EB0F1807F01D3012059
:1011E00010BD4FF0E02460610F21601701F083F81B
:1011F0000020A06107202061002010BD70477047CB
:1012000070B590F83C20012A19D0012400F83C4F19
:101210000222427050F83C3C5A689D6822F07006E9
:101220000A684968324325F0800529435A6050F81E
:101230003C2C9160447000210170084670BD022072
:1012400070BD10B5040003D094F83D0010B107E064
:10125000012010BD002084F83C00204600F00CF86E
:10126000022084F83D00211D206800F05BFD012074
:1012700084F83D00002010BD08B500680B49884285
:1012800012D10B48016841F0100101600068002292
:1012900000F01000009011463620FFF7F3FCBDE887
:1012A00008403620FFF7E0BC08BD000000100040F9
:1012B00040380240704770B50446006801694FF03D
:1012C0000005C943890715D4C168C943890711D4EA
:1012D000E91E01610120207720688069800720468F
:1012E00002D0FFF7E7FF04E000F098F8204600F096
:1012F00096F8257720680169C943490717D4C16862
:10130000C943490713D46FF004010161022020771B
:101310002068806910F4407F204602D0FFF7CAFFA2
:1013200004E000F07BF8204600F079F8257720688B
:101330000169C943090716D4C168C943090712D412
:101340006FF008010161042020772068C0698007E0
:10135000204602D0FFF7AEFF04E000F05FF8204621
:1013600000F05DF8257720680169C943C90617D4E4
:10137000C168C943C90613D46FF010010161082088
:1013800020772068C06910F4407F204602D0FFF724
:1013900091FF04E000F042F8204600F040F8257785
:1013A00020680169C943C90708D1C168C943C90791
:1013B00004D1891E0161204600F032F820680169DD
:1013C000C943090609D4C168C943090605D46FF0A9
:1013D000800101612046FFF711FF20680169C943C0
:1013E000490609D4C168C943490605D46FF04001D4
:1013F0000161204600F015F820680169C94389069B
:101400000BD4C168C943890607D46FF0200101617C
:101410002046BDE87040FFF7F2BE70BD70477047D0
:101420007047704710B504460068416994F8392048
:10143000C1F3C011212A0BD151B1416921F08001C2
:101440004161206B08B1FFF7FEF8204600F02CFD4B
:101450002068416994F83A20C1F38011222A0BD107
:1014600051B1416921F040014161606B08B1FFF762
:10147000EAF8204600F00AFD002010BD7047000089
:1014800070B5026804461068D168536910F00F0FF8
:1014900050D003F0010501F4907635435DD0C207CA
:1014A00005D0CA0503D5E26B42F00102E2634207B0
:1014B00005D5DA0703D0E26B42F00202E26382074D
:1014C00005D5DA0703D0E26B42F00402E2630207BB
:1014D00005D5DA0703D0E26B42F00802E263E26B63
:1014E000002A33D0800604D5880602D5204600F0B5
:1014F000E4FC20684069E16BC0F38010090700D468
:1015000028B3204600F0C2FC2068416949061AD57C
:10151000416921F040014161606BA0B11B49016547
:10152000606BFFF7D7F8002810D0606B016DBDE845
:1015300070400847830610D58B060ED52046BDE8BF
:10154000704000F0BABC2046FFF798FF70BD2046FF
:10155000FFF794FF0020E06370BD030606D50B067D
:1015600004D52046BDE8704000F054BE4006F3D5D7
:101570004806F1D5D168204621F04001D1602021F4
:1015800084F8391000F03BF970BD0000ED1D000833
:1015900070B5040004D094F83900002510B106E0BD
:1015A000012070BD84F83850204600F023F8242034
:1015B00084F839002068C16821F40051C1602046D8
:1015C00000F0C6FC2068016921F4904101612068A7
:1015D000416921F02A0141612068C16841F400514C
:1015E000C160E563202084F8390084F83A000020C7
:1015F00070BD000070B586B0064614216846FEF73F
:10160000B1FE24493068884241D123480025016851
:1016100041F010010160006800F0100005901E48C4
:101620001438016841F0010101600068694600F06A
:10163000010005904FF4C06000900220019001204D
:10164000029003200390072004901448FFF7CAF982
:10165000144C134820604FF00060C4E901054014A9
:10166000C4E903506561A561E561256220466562B4
:10167000FFF712F908B1FEF7E5FF74630022114687
:101680002520A663FFF7FEFA2520FFF7EDFA06B046
:1016900070BD0000001001404438024000000240CC
:1016A00040640240BC050020F8B5044690F83A00BA
:1016B00020283CD1C1B3BAB394F83800012836D001
:1016C000012084F83800A162A2850025E56322206C
:1016D00084F83A00636B1748D863636B1648186444
:1016E000636B1648D864606B134605650846666BE5
:1016F000216802463046091DFFF738F92068016865
:101700004168009184F83850C16841F48071C1602B
:101710002068416941F0010141612068416941F05F
:10172000400141610020F8BDFFE70120FBE70220F6
:10173000F9E70000471E0008831E0008FD1D000891
:10174000704770472DE9F843044690F839001F466A
:1017500016460D46202850D1A5B19EB194F8380008
:1017600001284AD0012084F838004FF00008C4F85E
:101770003C80212084F83900FFF71EFAA6848146B8
:10178000E68426E00120BDE8F883E08C401EE0847A
:10179000A0684B46B0F5805F4FF000024FF080012B
:1017A0002046009703D000F066FDE8B90DE000F098
:1017B00062FDC8B928882168C0F308004860206924
:1017C00008B16D1C05E0AD1C03E0216815F8010BA4
:1017D0004860E08C0028D8D14B46002240212046AA
:1017E000009700F048FD08B10320CCE7202084F8E2
:1017F000390084F838800020C5E70220C3E770472D
:1018000070B504460068124DA84220D101F03EF99F
:1018100021680868C968C0F3001001F0100190B198
:1018200089B10C4800684068C0F5FA710A484180E7
:10183000012101700948006801F086FC2868686889
:101840000748FFF7EFFDBDE8704001F02DB970BD0E
:1018500000100140BC050020300500201C000020C5
:101860007C0500200E4C042000F078F8012813D1EC
:101870000A2001F07FFE042000F070F801280BD14F
:10188000206801F061FC02E00A2001F073FE0420F0
:1018900000F064F80128F7D00A2001F06BFEE2E7BF
:1018A000200000202B4C2C4D2168286801F089FA7B
:1018B000002000F053F8012821D10A2001F05AFE3F
:1018C000002000F04BF8012819D1002637460BE024
:1018D0000A2001F04FFE322F02D27F1CFFB200E03F
:1018E000761C092E06D900262168491C216028682B
:1018F00001F067FA002000F031F80128E8D001205B
:1019000000F02CF8012821D10A2001F033FE01203B
:1019100000F024F8012819D1002637460BE00A20F0
:1019200001F028FE322F02D27F1CFFB200E0761CAD
:10193000092E06D900262168491E2160286801F079
:1019400040FA012000F00AF80128E8D00A2001F04E
:1019500011FEADE7000000202400002010B50E4A63
:10196000002430B1012806D0022806D0042811D165
:1019700009E0102102E0082100E004211046FFF7F1
:1019800009F930B106E001210448FFF703F9012805
:1019900000D10124204610BD00100240000002408A
:1019A000064D4FF400744FF4FA7621462846FFF7AF
:1019B000F6F8304601F0DEFDF7E7000000140240C3
:1019C000074C084F4FF0FF354FF4806629462068DA
:1019D00001F0D5FB31463846FFF7E1F8F6E70000A5
:1019E0002000002000140240094808B5016841F4B5
:1019F000800101600068002200F480000090114620
:101A00003A20FFF73FF9BDE808403A20FFF72CB92C
:101A100030380240F0B587B014216846FEF7A2FCCA
:101A200025480025016841F010010160016801F0BE
:101A300010010591016841F004010160016801F0A5
:101A400004010591016841F020010160016801F085
:101A500020010591016841F080010160016801F0F9
:101A600080010591016841F0010101600068134F98
:101A700000F001004FF4C06605900122314638465F
:101A8000FFF794F81C20CDE9000501246946029473
:101A90000B48FEF7A7FFCDE900640226CDE9024618
:101AA00069463846FEF79EFF8DE870006946054896
:101AB000FEF798FF07B0F0BD303802400014024036
:101AC00000100240000002401CB500240F480094A2
:101AD0000D49019401605321C0E9011440F2E7313E
:101AE000C16080218161FFF7ACFB08B1FEF7AAFD60
:101AF0000094694605480194FFF782FB002801D055
:101B0000FEF7A0FD1CBD0000001000403C050020B9
:101B10000C4810B50A4901604FF4E13141600021E1
:101B200081600C22C160C0E904128161C161FFF7CC
:101B30002FFD002803D0BDE81040FEF783BD10BD87
:101B4000001001407C050020F8B5124900200D6806
:101B500029686968104C00916080A4F57A71616011
:101B6000A16020704FF4FA763146A4F57A70FEF742
:101B7000F9FB3146A4F5FA70FEF7F4FBE86840F093
:101B80001000E86061683246BDE8F8400148FFF7A0
:101B90008BBD00007C05002030050020FEE770476B
:101BA000704700000A4601464FF47A730148FFF778
:101BB000C9BD00007C05002010B500F067FF01F0F2
:101BC000BDFDBDE8104000F06FBF000030B593B020
:101BD00030216846FEF7C6FB14210CA8FEF7C2FBB5
:101BE00018480025016841F080510160006800F04C
:101BF000805011901448016841F4804101600068F0
:101C0000022400F480401190012000900004019013
:101C10008001CDE9064008AA0420542182E813007F
:101C20000B906846FFF748F90CA90F2081E83100B6
:101C3000E002CDE90F0502210CA8FFF755F813B01B
:101C400030BD0000403802400070004070B5194CB3
:101C50002068194A10F00C01184804D055100429C6
:101C600003D0082903D002601BE0056019E0114988
:101C7000091F0B68C3F380560B6803F03F0316B1CE
:101C8000B5FBF3F201E0B2FBF3F20B680968C3F3B2
:101C900088135A43C1F30141491C4900B2FBF1F1D9
:101CA00001602168064AC1F30311515C0268CA4011
:101CB000026070BD083802400024F40034000020A7
:101CC000EA3B00081048016841F4700101600F48C8
:101CD000016841F0010101600C4A002108321160E5
:101CE00002680B4B1A400260031D0A4A1A60026820
:101CF00022F48022026005480C3001600249580637
:101D0000803908607047000088ED00E0003802402C
:101D1000FFFFF6FE103000240148FFF7CCBA0000A8
:101D20003C050020F0B50268254C264D264E274F75
:101D3000274B4FF0804CA04209D0604507D0A84205
:101D400005D0B04203D0B84201D0984204D122F06D
:101D5000700E4A6842EA0E02A0421BD0604519D0BC
:101D6000A84217D0B04215D0B84213D0984211D033
:101D7000184DA8420ED0184DA8420BD0174DA842BE
:101D800008D0174DA84205D0164DA84202D0164DD6
:101D9000A84203D122F44075CA682A434D6922F053
:101DA00080022A4302608A68C2620A688262A04294
:101DB00001D0984201D10969016301214161F0BD5F
:101DC000000001400004004000080040000C0040FA
:101DD000000401400040014000440140004801402F
:101DE00000180040001C00400020004010B5806B2F
:101DF0000021C185C184FFF741FB10BD70B5846B24
:101E00002068406994F83910C0F3C01000252129DA
:101E100004D118B1E584204600F046F820684069F6
:101E200094F83A10C0F38010222904D118B1E58546
:101E3000204600F02BF8E06B40F01000E0632046F5
:101E4000FFF71CFB70BD10B50146806B096809687F
:101E5000C90513D40021C1850168CA6822F48072C3
:101E6000CA6001684A6922F001024A6101684A6950
:101E700022F040024A61202180F83A10FFF760FC0E
:101E800010BD10B5806BFFF75CFC10BD0168CA681F
:101E900022F49072CA6001684A6922F001024A6124
:101EA000202180F83A1070470168CA6822F0C00209
:101EB000CA60202180F83910704710B590F83A10A8
:101EC000222901D0022010BD8168B1F5805F11D0B8
:101ED0000169002901681FD0496801F07F03816A08
:101EE0004A1C82620B70C18D491E0904090CC18510
:101EF00018D02BE00269816A002A0268526805D076
:101F0000D2B20A80816A491C8162ECE7C2F30802FE
:101F10000A80816A891CF7E74A68816A4B1C8362E0
:101F20000A70E0E70168CA6822F02002CA6001680E
:101F3000CA6822F48072CA6001684A6922F001020C
:101F40004A61202180F83A10FFF7FAFB002010BD0B
:101F50002DE9F041044600680169E26821F440512E
:101F6000114301612169A068E26908436169114375
:101F700022680843D16849F20C6399430143D16058
:101F800020684169A26921F4407111434161E2690D
:101F90006425B2F5004F9748974922684FF0320800
:101FA0003FD08A4201D082427CD1FEF745FF00EB50
:101FB000C00101EB001061688900B0FBF1F6FEF78B
:101FC0003BFF00EBC00101EB001061688900B0FB32
:101FD000F1F0B0FBF5F06FF01801484306EB80011B
:101FE00008EB0110B0FBF5F000F0F006FEF724FF5F
:101FF00000EBC00101EB001061688900B0FBF1F05B
:10200000B0FBF5F006EB0016FEF716FF00EBC00183
:1020100001EB001061688900B0FBF1F7FEF70CFFDF
:10202000D2E08A4201D082423DD1FEF705FF00EBAB
:10203000C00101EB001061684900B0FBF1F0B0FB9A
:10204000F5F00601FEF7F8FE00EBC00101EB001011
:1020500061684900B0FBF1F7FEF7EEFE00EBC0014E
:1020600001EB001061684900B0FBF1F0B0FBF5F046
:102070006FF01801484307EB800108EBC100B0FB8B
:10208000F5F000F0F80006EB4006FEF7D5FE00EB99
:10209000C00101EB001061684900B0FBF1F7FEF7E9
:1020A000CBFE3CE055E0FEF7B7FE00EBC00101EBD4
:1020B000001061684900B0FBF1F0B0FBF5F00601DB
:1020C000FEF7AAFE00EBC00101EB001061684900B9
:1020D000B0FBF1F7FEF7A0FE00EBC00101EB001032
:1020E00061684900B0FBF1F0B0FBF5F06FF018014A
:1020F000484307EB800108EBC100B0FBF5F000F0AE
:10210000F80006EB4006FEF787FE00EBC00101EB8E
:10211000001061684900B0FBF1F7FEF77DFE00EBAF
:10212000C00101EB001061684900B0FBF1F0B0FBA9
:10213000F5F06FF01801484307EB800108EBC10090
:10214000B0FBF5F000F00700216830448860BDE87E
:10215000F081FEF761FE00EBC00101EB0010616849
:102160008900B0FBF1F6FEF757FE00EBC00101EB72
:10217000001061688900B0FBF1F0B0FBF5F06FF082
:102180001801484306EB800108EB0110B0FBF5F0A5
:1021900000F0F006FEF740FE00EBC00101EB00107E
:1021A00061688900B0FBF1F0B0FBF5F006EB0016BA
:1021B000FEF732FE00EBC00101EB00106168890000
:1021C000B0FBF1F7FEF728FE00EBC00101EB0010B9
:1021D00061688900B0FBF1F0B0FBF5F06FF0180119
:1021E000484307EB800108EB0110B0FBF5F000F06D
:1021F0000F00A9E70014014000100140044D4FF00A
:10220000FF342146286800F0BAFFFEF7D1F9F8E75D
:102210001C00002090F83910212901D002207047BD
:102220008168B1F5805F016A0BD04A1C02620268C6
:1022300009785160C18C491E0904090CC1840ED073
:1022400017E009880268C1F308015160016900299B
:10225000016A02D0491C0162ECE7891CFBE70168B6
:10226000CA6822F08002CA600068C16841F040017B
:10227000C160002070472DE9F041984617460E4690
:102280000446069D1DE0681C1BD02DB1FEF794FC92
:10229000A0EB0800A84214D92068C16821F4D071CD
:1022A000C1602068416921F001014161202084F86A
:1022B000390084F83A00002084F838000320BDE893
:1022C000F0812068006836EA000004D00020B8429F
:1022D000D9D00020F3E70120F9E7000010B5044849
:1022E000FFF7CEF8BDE810400148FFF789BA0000BB
:1022F0007C050020FEE70907090E002804DB00F139
:10230000E02080F80014704700F00F0000F1E0209A
:1023100080F8141D70470000002807D00E4910F007
:10232000FF0F04D051FA80F00078401C704710F481
:102330007F4F04D0C0F30720085C0930704710F4C9
:102340007F0F04D0C0F30740085C1130704701EBE9
:102350001060007819307047023C000802E008C89D
:10236000121F08C1002AFAD170477047002001E00F
:1023700001C1121F002AFBD1704700000348016809
:10238000814201D00120704700207047B400002036
:102390002DE9FC411F460446DDE90831DDE90A6507
:1023A000143040600060C4E90827C4E90A310A46D5
:1023B000232118461C3400F07DFDD4E903014218A6
:1023C000D4E90101104B121F00F042FB44F81A0B34
:1023D000002004F801690D4A04F8036BE4E80205E3
:1023E00044F8105901C404F83C0B01C444F87409C2
:1023F000009023460190194604F1440001F010FAC0
:102400000020BDE8FC810000353400087B36000860
:1024100010B5029C24F001044472C0E907120021A7
:10242000C0E9093114304060006010BDF0E90512C8
:102430004A60D0E9001211604060006070470000FF
:10244000FEF7C0FBFFF7C2FBFFF7E4FAFFF7CCFA99
:10245000FFF73AFBFFF75CFBFFF776FBFDF7EAFFC0
:10246000FDF7C2FF0B4C206801F0D0F8606801F066
:10247000CDF8A06801F0CAF8206901F0C7F86069DA
:1024800001F0C4F8E06801F0C1F8642001F072F8CE
:10249000FBE700000400002010B500F005F9BDE8DE
:1024A0001040FFF7CDBF00000FB47F2110B503AB84
:1024B0000848029A01F026FA7F2800D97F2082B2CC
:1024C0004FF47A7303490448FFF73CF910BC5DF8F8
:1024D00014FB0000C80000207C05002030B5134923
:1024E00043680A68134402F1080498420DD05D88DD
:1024F0005DB94D68AB4208D08D689D4200D18860BF
:102500005D6845605B68851A1D518368134483428A
:102510000BD05D88002D08D18D68854200D18B607D
:10252000416859604068991A015130BD500000203F
:102530002DE9F04F85B09946DDE90EA5109CAB461C
:10254000630602D5DFF814C103E0DFF810C1ACF177
:10255000110CE30601D524F00104E30701D0302378
:1025600000E0202300260493A3070BD5002A02DAFB
:102570002D26524206E0630701D52B2602E02307F1
:1025800000D520260023EE4622B930228DF8002007
:1025900001230CE0B9F10A0F14D002F00F08120960
:1025A0001CF808800EF803805B1C002AF2D1AB42B5
:1025B00000DD1D46AAEB050214F0110F4FF02007B5
:1025C00008D015E00A27B2FBF7F807FB1828B2FB82
:1025D000F7F2E5E73EB1002A05DD521E03E088422E
:1025E00000D20770401CB2F1000CA2F10102F6DC2F
:1025F00026B1884200D20670401C521EE40605D562
:1026000008E0884201D2049C0470401C141EA2F110
:102610000102F6DC30242E466D1E9E420ADD884201
:1026200000D20470401CF6E7884201D2E55C0570D8
:10263000401C00E074461D1EA3F1010307DDBBF141
:10264000000FF1D103E0884200D20770401C131E36
:10265000A2F10102F7DC05B0BDE8F08F133D0008E0
:102660001CB502201421CDE90001C3010022044958
:1026700004A000F0BAFEBDE81C4000F0C7BF000097
:10268000992400086D61696E0000000070B5044C6B
:10269000044D02E020688047241DAC42FAD370BD8F
:1026A000283D00082C3D000870B5044C044D02E0A4
:1026B00020688047241DAC42FAD370BD2C3D000831
:1026C000303D000810B5FDF77BFD044A5188491CD8
:1026D0005180BDE81040FDF777BD0000A800002044
:1026E00010B5FDF76DFD0B4C6188491E09B2618084
:1026F00000290ADC00216180FDF766FD6068002882
:1027000007D0BDE8104000F085BCBDE81040FDF7E3
:102710005BBD10BDA800002070B5002833D01A4D55
:10272000296888422FD3696888422CD2A0F10C0412
:102730004FF0FF31154800F022FD60884FF4F55648
:1027400010B12088B04208D011A000F0E5F923882C
:102750006288214615A000F0DFF900206080268005
:10276000A868844200D2AC6029686068611A401A87
:102770002969081A28612046FFF7B0FEBDE87040BD
:10278000024800F0E1BC70BD500000201408002099
:10279000746F2066726565206120626164206461E7
:1027A000746120626C6F636B3A0A00006D656D3A6C
:1027B000203078253038782C207573656420666C5D
:1027C00061673A2025642C206D6167696320636F1F
:1027D00064653A203078253034780A000048704724
:1027E00074080020004870477418002010B5FFF7E7
:1027F0002DFA10484FF47A710068B0FBF1F0401EDA
:10280000B0F1807F09D24FF0E0210B4A4861FF20F0
:1028100010700020886107200861FFF737FFFFF77D
:10282000E1FF0446FFF7DAFF2146BDE8104000F063
:1028300051BD00003400002023ED00E0704700008F
:1028400070B52F490546283009682C1D11B18847FD
:10285000002853D02BA0216C00F05EF92DA0616AF6
:1028600000F05AF92FA0A16A00F056F931A0E16AF0
:1028700000F052F933A0216B00F04EF935A06168E9
:1028800000F04AF937A0A16800F046F939A0E168E4
:1028900000F042F93BA0216900F03EF93DA06169DA
:1028A00000F03AF93FA0A16900F036F941A0E169D2
:1028B00000F032F943A0216A00F02EF945A0616BC7
:1028C00000F02AF947A0A16B00F026F949A0E16BBE
:1028D00000F022F92878400706D500F071FE014685
:1028E00048A000F019F902E04EA000F015F9287890
:1028F000C00602D452A000F00FF9FEE770BD000040
:10290000380000207073723A203078253038780A09
:10291000000000007230303A203078253038780AD4
:10292000000000007230313A203078253038780AC3
:10293000000000007230323A203078253038780AB2
:10294000000000007230333A203078253038780AA1
:10295000000000007230343A203078253038780A90
:10296000000000007230353A203078253038780A7F
:10297000000000007230363A203078253038780A6E
:10298000000000007230373A203078253038780A5D
:10299000000000007230383A203078253038780A4C
:1029A000000000007230393A203078253038780A3B
:1029B000000000007231303A203078253038780A33
:1029C000000000007231313A203078253038780A22
:1029D000000000007231323A203078253038780A11
:1029E00000000000206C723A203078253038780AD8
:1029F000000000002070633A203078253038780AD3
:102A00000000000068617264206661756C74206F5C
:102A10006E207468726561643A2025730D0A0D0A90
:102A20000000000068617264206661756C74206F3C
:102A30006E2068616E646C65720D0A0D0A000000FC
:102A400046505520616374697665210D0A000000C7
:102A500070B50446121D22F0070000220A4D4438CA
:102A600040F82250521C112AFAD34162002181629F
:102A7000C16200F13402016382E81A004FF08073F2
:102A80000364016070BD0000EFBEADDE10B5FDF760
:102A900097FB044A1178491C1170BDE81040FDF7FE
:102AA00093BB00004C00002010B5FDF789FB044AE1
:102AB0001178491E1170BDE81040FDF785BB00007C
:102AC0004C0000202DE9F041064614460D4608460C
:102AD00000F0B2FD05F11407B4B1012C18D134682F
:102AE0000EE000BF95F8351094F82120A4F11400F1
:102AF000914204D23946143000F033F802E02468E1
:102B0000B442EFD1B44203D13946304600F029F83F
:102B10000020BDE8F08100000FB47F2110B503ABA9
:102B20000448029A00F0EEFE0248FFF787FE10BC50
:102B30005DF814FB940700200268516002680A6087
:102B40000160486070470268516002680A60016075
:102B5000486070470268516002680A60016048601E
:102B600070474268116042684A604160086070477F
:102B7000D0E900124A60D0E90012116040600060A4
:102B80007047D0E900124A60D0E90012116040603D
:102B9000006070472DE9F047002807D0374CC01C73
:102BA00020F00306E068864202D90020BDE8F087E5
:102BB0000C2E00D20C264FF0FF31314800F0DFFA26
:102BC000D4F808C02168E768ACEB0100BA1B4FE0FD
:102BD0000D186B88E3BB6B681B1A0C3BB34246D3E2
:102BE0006A6806F11803121A0C3A4FF001094FF403
:102BF000F55A9A422DD383190C33CA184FF00008A6
:102C0000A2F800A0A2F80280D5F80480C2E90180F1
:102C10006B60A5F8029050680C37B84202D001F101
:102C200008028350206930440C302061626982427E
:102C300000D26061A5F800A0654512D1A068428865
:102C40007AB1626890420CD040680844A060F6E710
:102C50000DE0A5F8029068686A1A801A226910448B
:102C6000E3E7074800F070FA05F10C009EE768689A
:102C70008242ADD8024800F067FA96E75000002083
:102C80001408002070B50D4601461646052000F0D8
:102C900034F9040014D0667204F11400A06160617C
:102CA000A8B220848000FFF775FFE06148B10020E2
:102CB0006084A084E08404F12800E062A0622046E1
:102CC00070BD204600F041F9002070BD2DE9F74F9E
:102CD0008A4604464FF0000900F072FC0546FDF7F5
:102CE0006FFA0746608C02996FF0010808434FF0B5
:102CF000000636D13846FDF767FA4046BDE8FE8F3C
:102D00002E630298F0B3627A294604F11400FFF7AB
:102D1000D9FE029800280CDD00F00AFD814605F17D
:102D2000440002AA0021834600F052FD584600F0FC
:102D30008BFD3846FDF748FA00F06CF9286B002847
:102D4000DCD1FDF73DFA07460298002809DD00F0C6
:102D5000EFFC0299A0EB0909B1EB0900029000D544
:102D60000296608C0028CBD0E18CE06950F82110ED
:102D7000CAF80010E08C401C80B2E084218C8842AC
:102D800002D300E011E0E68434F8220F401E24F85C
:102D9000060B2068A0420FD0143800F0F2FB384632
:102DA000FDF712FA00F036F909E03846FDF70CFAA3
:102DB0004046C5F83080A1E73846FDF705FA002007
:102DC0009CE70022AFF300802DE9F74F8A460446C6
:102DD0004FF0000800F0F4FB0546FDF7F1F9074657
:102DE000608C218C00266FF00209884234D1029851
:102DF000002854D030E02E630298E8B3627A294666
:102E000004F12800FFF75EFE029800280CDD00F0B8
:102E10008FFC804605F1440002AA0021834600F0A1
:102E2000D7FC584600F010FD3846FDF7CDF900F00C
:102E3000F1F8286B002836D1FDF7C2F90746029851
:102E4000002809DD00F074FC0299A0EB0808B1EB42
:102E50000800029000D50296608C218C8842CAD06E
:102E6000A28CE16941F822A0A08C401C80B2A08411
:102E7000218C884202D300E011E0A68434F8220FAE
:102E8000401C24F80E092068A0420ED0143800F02F
:102E900078FB3846FDF798F900F0BCF808E03846B2
:102EA000FDF792F94846BDE8FE8F3846FDF78CF9EC
:102EB0000020F8E710B50346CCB2042A1AD38107E4
:102EC00018D1194644EA042343EA034306E008C143
:102ED000103A08C141F8083B41F8043C102AF6D2E8
:102EE00001E008C1121F042AFBD20B4602E000BF1A
:102EF00003F8014B521EFBD210BD2DE9F0410F46E5
:102F0000064600F045F80546C068FFF743FE04009A
:102F100019D00021EA68FFF7CDFF26720020607209
:102F200008223946204600F0C1F9FDF749F9064666
:102F300004F10C01281DFFF7FFFD3046FDF744F9B1
:102F40002046BDE8F0810020FBE770B50446002074
:102F50002072FDF735F9054604F10C00FFF708FE75
:102F60002846FDF731F92046BDE87040FFF7D4BB95
:102F700070B5044600202072FDF722F9054604F1E1
:102F80000C00FFF7F5FD2846BDE87040FDF71CB9C1
:102F9000074A002102EB01131B78834202D102EBA6
:102FA00001107047491C0429F4DB00207047000021
:102FB000680000202DE9F041044616460D460846FB
:102FC000FFF7E6FF0746FFF77DFB381D796800E055
:102FD00009688142FCD1FFF783FB45F08000207235
:102FE00008223146204600F061F9FDF7E9F8054670
:102FF00004F10C01381DFFF79FFD2846BDE8F041A4
:10300000FDF7E2B8007A000601D5012070470020E4
:103010007047000070B5FDF7D3F8114C0546608885
:10302000B0B9A068FFF778F90E49401E626851F800
:103030003010143991420BD020700B486160007839
:1030400001F11C01002802F11C0006D0FDF7BFF8B9
:103050002846BDE87040FDF7B7B8FDF7B8F8F7E7C8
:10306000A8000020340800204C00002010B50446C1
:10307000FDF7A6F8024694F834000E4920F00F0040
:10308000401C84F8340094F8350001EBC00104F1D1
:1030900014004B6818604B68A36148600648616182
:1030A000A16B836819438160BDE810401046FDF7AD
:1030B0008BB8000034080020A800002010B504469A
:1030C000FDF77EF804F11401D1E900235360D1E942
:1030D00000231A60A161616194F83520074951F815
:1030E000323001EBC2018B4204D10549A36B8A68DF
:1030F0009A438A60BDE81040FDF766B834080020A6
:10310000A800002070B50C46014615460220FFF7C6
:10311000F4FE002805D000F114018161416184832F
:10312000457270BD2DE9F04116460A461F46054618
:103130000221FFF73FFF05F11404AC616C61AE831F
:103140006F720020BDE8F08170B50446FDF738F8D5
:103150000546606904F11401884208D0143800F073
:1031600010FA2846FDF730F8FFF754FF05E0A08B72
:10317000401CA0832846FDF727F8002070BD73B5DA
:103180000546FDF71DF80646A88B28B1401EA8830A
:103190003046FDF719F821E0019808B300F010FA65
:1031A0000446002020636A7A214605F11400FFF7E7
:1031B00089FC0198002809DD04F1440001AA0021DE
:1031C000054600F005FB284600F03EFB3046FCF7C4
:1031D000FBFFFFF71FFF206B002800D100207CBD04
:1031E0003046FCF7F1FF6FF001007CBD08B509A087
:1031F000FFF792FC0AA0FFF78FFC12A003230090B8
:103200000122194612A0FFF787FCBDE8084018A06C
:10321000FFF782BC0A205C207C202F0A00000000FF
:103220002D205254202D20202020205468726561CA
:1032300064204F7065726174696E6720537973748E
:10324000656D0A0044656320313820323031390021
:10325000202F207C205C202020202025642E256427
:103260002E2564206275696C642025730A000000B5
:103270002032303036202D203230313920436F70EB
:103280007972696768742062792072742D7468722B
:10329000656164207465616D0A000000014600E00C
:1032A000491C0A78002AFBD1081A704710B5002A79
:1032B00007D0034611F8014B03F8014B2CB1521E05
:1032C000F8D110BD03F8011B00E00021521EF9D116
:1032D00010BD00000A46C11C10B522F0030321F006
:1032E0000301182B20D9A3F118048C421CD3114CD4
:1032F000581A18382160E0604FF4F5520A80002314
:103300000C30C1E901034B804B68194461600A80AD
:1033100001224A8048608860002307A10848FFF71F
:1033200001FF2068A06010BD0146BDE8104005A067
:10333000FFF7F2BB500000206865617000000000DC
:10334000140800206D656D20696E69742C2065720B
:10335000726F7220626567696E2061646472657362
:103360007320307825782C20616E6420656E64208F
:103370006164647265737320307825780A000000F8
:1033800010B50A4900230A4C4B80184604EBC002D2
:10339000401C526012600828F8DB072008700348C0
:1033A0004B600C308B604060006010BDA8000020B6
:1033B0003408002010B5074CA068FEF7ADFF0649A1
:1033C000401E51F8300014386060BDE810401C30D9
:1033D000FCF743BFA80000203408002001484060EB
:1033E00000607047C000002070472DE9FF47894604
:1033F000DDE90C76824601461D4690460120FFF726
:103400007CFD041E0DD02846FFF7C4FB60B1039677
:103410008DE8A10043464A4651462046FEF7B8FFD4
:10342000204604B0BDE8F0872046FFF78EFD00205F
:10343000F7E7000070B513480468FCF7C1FE0546C5
:103440002046FFF73BFE042084F8340004F14400DA
:1034500000F0D6F92046FFF7D5FD012801D1206FF5
:1034600058B104F114010848FFF76DFB2846FCF73A
:10347000ABFEBDE87040FFF7CDBD2046FFF778FDFD
:10348000F4E70000AC000020B400002000F002F8D7
:10349000FCE7000070B527E0FCF792FE0546FEF75A
:1034A0006DFF58B318480168A1F11404D1E9000276
:1034B0004260D1E90002106049600960FFF702F93B
:1034C000216F09B1204688472046FFF79BFD012860
:1034D0000FD0FFF705F92846FCF776FEA06AFFF744
:1034E0001BF92046FFF731FDFEF748FF0028D3D136
:1034F00070BD2046FFF73CFDFFF7F2F82846BDE817
:103500007040FCF761BE0000B40000201FB520230E
:1035100008480722D9008DE80F000023064A07A1BA
:10352000783800F00FF804B00248BDE81040783851
:1035300000F06CB8940600208D3400087469646C47
:10354000650000002DE9FF5F92460EAA0C4692E846
:10355000E0010A46994683460121FFF72BFD8DE8DD
:10356000E0014B46524621465846FEF711FF04B093
:10357000BDE8F09F10B500F0C1F8BDE8104000F0C4
:1035800025B870B5044690F8340000F00F0002280A
:1035900002D04FF0FF3070BDFCF712FE054604F17B
:1035A0001400FFF7EEFA04F1440000F093F9284606
:1035B000FCF70AFE2046FFF759FD002070BD000011
:1035C0000148006870470000AC000020F1B5FCF72E
:1035D000F7FD05460C480468204600F02DF804F17C
:1035E00044006A460021064600F0F2F8304600F03A
:1035F0002BF92846FCF7E8FDFFF70CFD206B801C3B
:1036000000D120630020F8BDAC00002010B590F878
:103610003610012280F835108A400221826380F83A
:103620003410FFF7AEFF0348006808B1FFF7F2FC63
:10363000002010BDAC00002070B5044690F83400A6
:1036400000F00F00012802D04FF0FF3070BDFCF7F2
:10365000B7FD054694F8340020F00F00801C84F874
:1036600034002046FFF72AFD04F1440000F032F94F
:103670002846FCF7A9FD002070BD10B504466FF088
:103680000100206304F11400FFF77BFA2046FFF7E6
:10369000EDFCBDE81040FFF7BDBC000070B5FCF7C5
:1036A0008FFD06461348046894F8340000F00F00BC
:1036B000012819D1D4E90501884215D004F114007C
:1036C0000546FFF75EFA94F835000B4901EBC000A0
:1036D00041680D6041686960456028603046FCF7CC
:1036E00073FDFFF797FC02E03046FCF76DFD00200C
:1036F00070BD0000AC00002034080020002802DA71
:103700004FF0FF3070474FF47A7190FBF1F290FB6D
:10371000F1F301FB130000EB40034A43C3EBC0107D
:103720004B1E03EBC00090FBF1F01044704700000B
:10373000014800687047000048000020094810B5A3
:103740000168491C0160FFF73BFF016C491E0164E1
:1037500003D1C16B0164FFF7A1FFBDE8104000F089
:1037600003B80000480000202DE9F041FFF7E0FF1A
:103770000646FCF725FD0746144D1EE060696FF014
:103780000041301A143C88421AD22046FEF74EFE01
:10379000D4E907108847FFF7CBFF0646607A810718
:1037A00008D5C10706D020F001006072204600F065
:1037B0004BF802E020F0010060722C68AC42DDD1D1
:1037C0003846BDE8F041FCF7FFBC0000C000002017
:1037D00049B1012904D0022908D003290ED109E0FA
:1037E000406A10600AE01168416207E0417A21F006
:1037F000020102E0417A41F002014172002070476B
:1038000070B50546FCF7DCFC04462846FEF70EFEC4
:103810002046FCF7D9FC2846FFF7AAFB002070BD24
:103820002DE9F8439046DDE908450A461F4606465D
:103830000A21FFF7BFFB23463A4641463046009532
:10384000FEF7E6FDBDE8F883F8B50446FCF7B8FCE2
:1038500005462046FEF7EAFD607A20F0010060721E
:103860002846FCF7B1FCFFF763FF616A0844A062D9
:10387000FCF7A6FC0546164A0020009202EBC002A7
:10388000694653686FF0004C5DF820200BE0126829
:10389000A2EBC0067769A66AB74202D0BE1B664596
:1038A00003D341F820209A42F1D10948001F016852
:1038B000491C016004F114010098FFF74BF9607A8C
:1038C00040F0010060722846FCF77EFC0020F8BD45
:1038D000C000002070B50446407AC0070ED0FCF747
:1038E0006FFC05462046FEF7A1FD2846FCF76CFC60
:1038F000607A20F001006072002070BD4FF0FF3050
:1039000070BD00002DE9FF4F8946044600EB090712
:1039100083B080464FF0FF3A4FF0200BA74202D20F
:103920005746C8F1FF3907E1252803D0BC4200D231
:10393000207081E000260599491C059108782D2802
:1039400011D02B2812D0202813D0232814D03028AF
:1039500015D00A785546303A0A2A13D205A800F045
:103960002CF905461AE046F01006E4E746F0040696
:10397000E1E746F00806DEE746F02006DBE746F022
:103980000106D8E72A2809D10698491C059120C8C4
:103990000690002D02DA6D4246F01006CDF800A028
:1039A000059801782E2918D1401C05900178A1F1C5
:1039B00030020A2A04D205A800F0FFF8009008E0BF
:1039C0002A2908D1401C0590069802C8069000914B
:1039D0000846002801DA00200090059800210278AE
:1039E000682A01D06C2A02D1401C1146059000784B
:1039F0000A236F287DD00CDC63281FD004DC252827
:103A00007BD058280DD17EE0642801D0692808D1E8
:103A10007DE070285ED073282CD0752879D0782866
:103A200073D0BC4201D2252020700598641C017817
:103A3000D1B3BC4200D22170641C7AE0F00608D4F5
:103A400058466D1E002D04DDBC4200D22070641C5F
:103A5000F7E70699BC4211F8040B069100D22070DA
:103A6000584602E0BC4200D22070641C6D1E002D3E
:103A7000F8DC5EE0069808C8069003B93EA3184635
:103A8000FFF70CFC0099002902DD884200DD0846A2
:103A9000F1060AD459462A466D1E824205DDBC4213
:103AA00000D22170641CF6E752E0002106E0BC421F
:103AB00001D21A782270491C5B1C641C8142F6DB1F
:103AC0005A4629466D1E814233DDBC4200D2227027
:103AD000641CF6E7681C02D1082546F00106009830
:103AE0000296CDE9005006981023394604C8069086
:103AF0001BE006E001E00CE007E0BC429CD2252080
:103B000016E7082305E046F04006102301E046F0E2
:103B100002066C2901D068291DD0069804C80690B9
:103B200000983946CDE9005002962046FEF700FD88
:103B300004460598401C05900598007800287FF4FD
:103B4000F3AEB9F1000F11D0BC420DD220700DE0E0
:103B5000401E0590EDE7069830F8041B06908AB2E7
:103B6000B007DDD512B2DBE707F8010C07B0A4EB14
:103B70000800BDE8F08F0000284E554C4C2900008D
:103B800000207047002070470020704700207047D9
:103B900010B5FCF715FBFEF729FEFFF727FBFFF733
:103BA0001DFCFFF7EDFBFEF75BFDFFF71DFCFFF7CC
:103BB000ADFCFFF7FFFB002010BD10B50146002053
:103BC0006FF02F0307E0541C0C60127800EB8000AC
:103BD00003EB400010440A681478303C0A2CF2D3FE
:103BE00010BD0006101600061016000000000000B0
:103BF000000001020304060708090000000001029A
:103C000003040000010002000100030001000200A3
:103C10000100040001000200010003000100020095
:103C20000100050001000200010003000100020084
:103C30000100040001000200010003000100020075
:103C40000100060001000200010003000100020063
:103C50000100040001000200010003000100020055
:103C60000100050001000200010003000100020044
:103C70000100040001000200010003000100020035
:103C80000100070001000200010003000100020022
:103C90000100040001000200010003000100020015
:103CA0000100050001000200010003000100020004
:103CB00001000400010002000100030001000200F5
:103CC00001000600010002000100030001000200E3
:103CD00001000400010002000100030001000200D5
:103CE00001000500010002000100030001000200C4
:103CF00001000400010002000100030001000200B5
:103D0000010030313233343536373839616263641B
:103D10006566003031323334353637383941424305
:103D2000444546008D3B0008853B0008813B000868
:103D3000893B0008543D000800000020C800000036
:103D40005C2300081C3E0008C8000020B01B0000D7
:103D50006C2300080A0000000000000000000000C2
:103D60000000000000000000000000000000000053
:103D70000000000000000000000000000100000042
:103D800010000000000000000024F400000000000B
:103D90000000000000000000000000000000000023
:103DA0000000000000000000000000000000000013
:103DB0000000000000000000000000000100000002
:103DC0006C0000206C000020780000000200000061
:103DD0007C0000207C000020200000000500000086
:103DE0008C0000208C000020300000000A00000041
:103DF0009C0000209C0000202C000000000000001F
:103E000000000000000000000000000000000000B2
:0C3E1000000000000000000000000000A6
:040000050800018965
:00000001FF
